:100000000C945D000C9485000C9485000C94850084
:100010000C9485000C9485000C9485000C9485004C
:100020000C9485000C9485000C9485000C9485003C
:100030000C9485000C9485000C9485000C9485002C
:100040000C94DF020C9485000C94AD020C94870292
:100050000C9485000C9485000C9485000C9485000C
:100060000C9485000C94850000000008000201003B
:100070000003040700000000000000000000000072
:10008000250028002B0000000000240027002A0083
:10009000040404040404040402020202020203032E
:1000A0000303030301020408102040800102040836
:1000B0001020010204081020D00511241FBECFEF2C
:1000C000D8E0DEBFCDBF11E0A0E0B1E0E2EEFFE09E
:1000D00002C005900D92A433B107D9F721E0A4E343
:1000E000B1E001C01D92AE3EB207E1F710E0CDE5F0
:1000F000D0E004C02197FE010E94E907CC35D1076A
:10010000C9F70E9429030C94EF070C94000090E0BB
:10011000FC01EC55FF4F249180579F4FFC018491C7
:10012000882399F090E0880F991FFC01EA57FF4F50
:10013000A591B491FC01E458FF4F859194918FB73C
:10014000F894EC91E22BEC938FBF0895AF92BF929D
:10015000CF92DF92EF92FF920F931F93CF93DF9393
:100160006C017B018B01040F151FEB015E01AE18C2
:10017000BF08C017D10759F06991D601ED91FC91E4
:100180000190F081E02DC6010995892B79F7C50111
:10019000DF91CF911F910F91FF90EF90DF90CF9063
:1001A000BF90AF900895FC01538D448D252F30E012
:1001B000842F90E0821B930B541710F0CF96089574
:1001C00001970895FC01918D828D981761F0A28DA1
:1001D000AE0FBF2FB11D5D968C91928D9F5F9F7367
:1001E000928F90E008958FEF9FEF0895FC01918D1D
:1001F000828D981731F0828DE80FF11D858D90E08A
:1002000008958FEF9FEF0895FC01918D228D892F26
:1002100090E0805C9F4F821B91098F73992708950E
:1002200081E591E00E94040121E0892B09F420E09E
:10023000822F089580E090E0892B29F00E94100120
:1002400081110C9400000895FC01A48DA80FB92F12
:10025000B11DA35ABF4F2C91848D90E001968F73EE
:100260009927848FA689B7892C93A089B1898C910D
:10027000837080648C93938D848D981306C002885C
:10028000F389E02D80818F7D80830895EF92FF9226
:100290000F931F93CF93DF93EC0181E0888F9B8DA9
:1002A0008C8D98131AC0E889F989808185FF15C063
:1002B0009FB7F894EE89FF896083E889F989808186
:1002C0008370806480839FBF81E090E0DF91CF9155
:1002D0001F910F91FF90EF900895F62E0B8D10E077
:1002E0000F5F1F4F0F731127E02E8C8D8E110CC0E6
:1002F0000FB607FCFACFE889F989808185FFF5CF31
:10030000CE010E942401F1CFEB8DEC0FFD2FF11DEA
:10031000E35AFF4FF0829FB7F8940B8FEA89FB896D
:1003200080818062CFCFCF93DF93EC01888D8823CB
:10033000B9F0AA89BB89E889F9898C9185FD03C048
:10034000808186FD0DC00FB607FCF7CF8C9185FF2D
:10035000F2CF808185FFEDCFCE010E942401E9CF4D
:10036000DF91CF91089590E0FC01E859FF4F24916F
:10037000FC01EC55FF4F3491FC01E057FF4FE49135
:10038000EE23C9F0222339F0233001F1A8F4213003
:1003900019F1223029F1F0E0EE0FFF1FE458FF4F72
:1003A000A591B4918FB7F894EC91611126C0309566
:1003B0003E233C938FBF08952730A9F02830C9F021
:1003C000243049F7809180008F7D03C080918000A8
:1003D0008F7780938000DFCF84B58F7784BDDBCFAC
:1003E00084B58F7DFBCF8091B0008F778093B00074
:1003F000D2CF8091B0008F7DF9CF3E2BDACF8E50D7
:10040000806480937C0080917A00806480937A007D
:1004100080917A0086FDFCCF8091780090917900E0
:1004200008953FB7F8948091390190913A01A091D5
:100430003B01B0913C0126B5A89B05C02F3F19F0A8
:100440000196A11DB11D3FBFBA2FA92F982F882754
:10045000BC01CD01620F711D811D911D42E0660F2F
:10046000771F881F991F4A95D1F70895FC010190C5
:100470000020E9F73197AF01481B590BBC0181E51A
:1004800091E00C94A6008F929F92AF92BF920F932F
:100490001F93CF93DF93CDB7DEB7A1970FB6F89434
:1004A000DEBF0FBECDBF19A2423008F44AE08E0174
:1004B0000F5D1F4F842E912CB12CA12CA50194010E
:1004C0000E94C707E62FB901CA01EA30F4F4E05DE3
:1004D000D801EE938D01232B242B252B79F790E067
:1004E00080E0109719F0CD010E943602A1960FB658
:1004F000F894DEBF0FBECDBFDF91CF911F910F915A
:10050000BF90AF909F908F900895E95CE1CF1F92CC
:100510000F920FB60F9211242F933F934F935F9337
:100520006F937F938F939F93AF93BF93EF93FF93BB
:1005300081E591E00E942401FF91EF91BF91AF917D
:100540009F918F917F916F915F914F913F912F91EB
:100550000F900FBE0F901F9018951F920F920FB61D
:100560000F9211242F938F939F93EF93FF93E0911A
:100570006101F09162018081E0916701F091680171
:1005800082FD1BC0908180916A018F5F8F732091E3
:100590006B01821741F0E0916A01F0E0EF5AFE4FE3
:1005A000958F80936A01FF91EF919F918F912F9189
:1005B0000F900FBE0F901F9018958081F4CF1F925F
:1005C0000F920FB60F9211242F933F938F939F9307
:1005D000AF93BF938091350190913601A09137017F
:1005E000B09138013091340123E0230F2D3758F5B5
:1005F0000196A11DB11D2093340180933501909384
:100600003601A0933701B093380180913901909160
:100610003A01A0913B01B0913C010196A11DB11D91
:100620008093390190933A01A0933B01B0933C0130
:10063000BF91AF919F918F913F912F910F900FBEDE
:100640000F901F90189526E8230F0296A11DB11D4B
:10065000D2CF789484B5826084BD84B5816084BD36
:1006600085B5826085BD85B5816085BD80916E0050
:10067000816080936E001092810080918100826081
:1006800080938100809181008160809381008091BE
:1006900080008160809380008091B10084608093AD
:1006A000B1008091B00081608093B00080917A00A9
:1006B000846080937A0080917A00826080937A00CF
:1006C00080917A00816080937A0080917A008068BE
:1006D00080937A001092C100E0916101F091620173
:1006E00082E08083E0915D01F0915E011082E091F3
:1006F0005F01F09160018FEC808310926901E091BD
:100700006501F091660186E08083E0916301F091DC
:100710006401808180618083E0916301F0916401D4
:10072000808188608083E0916301F0916401808121
:1007300080688083E0916301F091640180818F7D06
:10074000808383E00E94870082E00E94870084E02B
:100750000E948700C0E0D0E08EE00E94FF01BC0153
:10076000990F880B990B0E94A0064B015C018092A7
:100770004D0190924E01A0924F01B09250018FE036
:100780000E94FF01BC01990F880B990B0E94A006E3
:100790002B013C014092490150924A0160924B0169
:1007A00070924C0180E10E94FF017C012AE038E256
:1007B00040EA5BE3C501B4010E945507609345011F
:1007C0007093460180934701909348012AE038E2F4
:1007D00040EA5BE3C301B2010E9455076093410107
:1007E000709342018093430190934401B701FF0C41
:1007F000880B990B0E94A0062AE038E240EA5BE3EE
:100800000E94550760933D0170933E0180933F0124
:100810009093400182E191E00E943602C0903D0138
:10082000D0903E01E0903F01F0904001A701960179
:10083000C701B6010E94C207882309F46BC084E295
:1008400091E00E94360280E391E00E9436020E940D
:1008500011026B017C018AEF882E912CA12CB12C06
:100860000E9411026C197D098E099F09683E734030
:1008700081059105A8F321E0821A9108A108B10829
:1008800088EEC80E83E0D81EE11CF11C811491048F
:10089000A104B10429F78090450190904601A090F1
:1008A0004701B090480120E030E040E250E4C5014B
:1008B000B4010E946A0618160CF409C1C0903D01EB
:1008C000D0903E01E0903F01F090400128E431EEED
:1008D0004AE150E4C701B6010E946A0687FFACC036
:1008E00021EE3AE744E95EE36091410170914201F3
:1008F00080914301909144010E946A0687FF9CC049
:1009000060E082E00E94B30161E083E00E94B301F5
:1009100060E0CFC046015701E894B7F82FEF3FEFF2
:100920004FE75FE7C501B4010E94C20781110DC006
:100930002FEF3FEF4FE75FE7C501B4010E946A0662
:1009400018161CF488E291E07CCF2FEF3FEF4FE7C1
:100950005FE4C701B6010E94500718161CF48CE230
:1009600091E06FCF2FEF3FEF4FE75FECC701B6018C
:100970000E946A0687FDF3CF20E030E0A901C7019D
:10098000B6010E946A0687FF09C06DE281E591E029
:100990000E944601F7FAF094F7F8F0942AE037ED58
:1009A00043EA5BE3C701B6010E94FE054B015C010F
:1009B0000E946F066B017C010E949E069B01AC01A8
:1009C000C501B4010E94FD054B015C014AE0C7016D
:1009D000B6010E9443026EE281E591E00E94460169
:1009E00020E030E040E251E4C501B4010E94550727
:1009F0004B015C010E946F066B01F12CE12C4AE077
:100A0000C701B6010E944302C701B6010E949E06BB
:100A10009B01AC01C501B4010E94FD0520E030E05E
:100A200040E251E40E9455070E946F0690E080E08A
:100A30004AE00E94430207CF28E431EE4AE150E445
:100A4000C701B6010E946A0687FF10C021EE3AE78F
:100A500044E95EE36091410170914201809143015C
:100A6000909144010E94500787FF4ACF28E431EE5D
:100A70004AE150E4C701B6010E94500787FD27C034
:100A800021EE3AE744E95EE3609141017091420151
:100A900080914301909144010E94500787FD17C047
:100AA00060E082E00E94B30160E083E00E94B30155
:100AB00061E084E00E94B301209709F44DCE0E94CA
:100AC0001001882309F448CE0E94000045CE20E0A2
:100AD00030E040E250E4C501B4010E94500718160E
:100AE0000CF05CC0C0903D01D0903E01E0903F0111
:100AF000F090400128E431EE4AE150E4C701B6012C
:100B00000E946A0687FF16C021EE3AE744E95EE3D9
:100B100060914101709142018091430190914401A3
:100B20000E946A0687FF06C061E082E00E94B3016E
:100B300060E0EBCE28E431EE4AE150E4C701B601B3
:100B40000E94500787FD10C02BE734E14EEA5EE3B8
:100B50006091410170914201809143019091440163
:100B60000E946A0687FDE0CF28E431EE4AE150E4B6
:100B7000C701B6010E94500787FD10C021EE3AE779
:100B800044E95EE36091410170914201809143012B
:100B9000909144010E94500787FF82CF60E0C5CF4B
:100BA000E1E5F1E01382128288EE93E0A0E0B0E08C
:100BB00084839583A683B78384E091E091838083C7
:100BC00085EC90E09587848784EC90E09787868712
:100BD00080EC90E0918B808B81EC90E0938B828B0A
:100BE00082EC90E0958B848B86EC90E0978B868BE3
:100BF000118E128E138E148E08955058BB27AA277B
:100C00000E9415060C9416070E94080738F00E94EF
:100C10000F0720F039F49F3F19F426F40C940507D0
:100C20000EF4E095E7FB0C94FF06E92F0E942707DE
:100C300058F3BA17620773078407950720F079F411
:100C4000A6F50C9449070EF4E0950B2EBA2FA02DB3
:100C50000B01B90190010C01CA01A0011124FF2769
:100C6000591B99F0593F50F4503E68F11A16F04064
:100C7000A22F232F342F4427585FF3CF4695379563
:100C80002795A795F0405395C9F77EF41F16BA0B28
:100C9000620B730B840BBAF09150A1F0FF0FBB1FD6
:100CA000661F771F881FC2F70EC0BA0F621F731F1F
:100CB000841F48F4879577956795B795F7959E3F7C
:100CC00008F0B0CF9395880F08F09927EE0F97950D
:100CD000879508950E94DB0608F481E008950E943C
:100CE0002F0788F09F5798F0B92F9927B751B0F088
:100CF000E1F0660F771F881F991F1AF0BA95C9F7A0
:100D000014C0B13091F00E944907B1E008950C94ED
:100D10004907672F782F8827B85F39F0B93FCCF3A0
:100D2000869577956795B395D9F73EF4909580951C
:100D3000709561957F4F8F4F9F4F0895E89409C03C
:100D400097FB3EF490958095709561957F4F8F4FFE
:100D50009F4F9923A9F0F92F96E9BB279395F69514
:100D6000879577956795B795F111F8CFFAF4BB0F92
:100D700011F460FF1BC06F5F7F4F8F4F9F4F16C0F6
:100D8000882311F096E911C0772321F09EE8872F80
:100D9000762F05C0662371F096E8862F70E060E03C
:100DA0002AF09A95660F771F881FDAF7880F9695B5
:100DB000879597F90895990F0008550FAA0BE0E859
:100DC000FEEF16161706E807F907C0F0121613060D
:100DD000E407F50798F0621B730B840B950B39F44D
:100DE0000A2661F0232B242B252B21F408950A26B3
:100DF00009F4A140A6958FEF811D811D089597F9F3
:100E00009F6780E870E060E008959FEF80EC0895B0
:100E100000240A94161617061806090608950024D9
:100E20000A9412161306140605060895092E039453
:100E3000000C11F4882352F0BB0F40F4BF2B11F4C7
:100E400060FF04C06F5F7F4F8F4F9F4F089557FD26
:100E50009058440F551F59F05F3F71F04795880F28
:100E600097FB991F61F09F3F79F0879508951216BF
:100E700013061406551FF2CF4695F1DF08C016166B
:100E800017061806991FF1CF86957105610508941C
:100E90000895E894BB2766277727CB0197F9089533
:100EA0000E94DB0608F48FEF08950E9468070C94F7
:100EB00016070E94080738F00E940F0720F09523BC
:100EC00011F00C94FF060C94050711240C944A07AA
:100ED0000E94270770F3959FC1F3950F50E0551FAF
:100EE000629FF001729FBB27F00DB11D639FAA277F
:100EF000F00DB11DAA1F649F6627B00DA11D661FCE
:100F0000829F2227B00DA11D621F739FB00DA11DEE
:100F1000621F839FA00D611D221F749F3327A00DA8
:100F2000611D231F849F600D211D822F762F6A2F44
:100F300011249F5750409AF0F1F088234AF0EE0FA9
:100F4000FF1FBB1F661F771F881F91505040A9F7D6
:100F50009E3F510580F00C94FF060C944A075F3FBA
:100F6000E4F3983ED4F3869577956795B795F79512
:100F7000E7959F5FC1F7FE2B880F911D969587958A
:100F800097F908950E94DB06880B990B0895A1E25A
:100F90001A2EAA1BBB1BFD010DC0AA1FBB1FEE1FF3
:100FA000FF1FA217B307E407F50720F0A21BB30B3E
:100FB000E40BF50B661F771F881F991F1A9469F7BA
:100FC00060957095809590959B01AC01BD01CF0116
:100FD0000895EE0FFF1F0590F491E02D0994F89409
:020FE000FFCF41
:100FE200000000004601A600D30093010401E200C4
:100FF200F6004E696C6169205620537472696E67FF
:10100200473A20006E616E00696E66006F76660078
:041012000D0A0000C3
:00000001FF
